:100000000C9462000C948A000C948A000C948A0070
:100010000C948A000C948A000C948A000C948A0038
:100020000C948A000C948A000C948A000C948A0028
:100030000C948A000C948A000C948A000C948A0018
:100040000C94DF040C948A000C94AD040C94870487
:100050000C948A000C948A000C948A000C948A00F8
:100060000C948A000C948A000000000024002700F1
:100070002A0000000000250028002B0000000000DE
:1000800023002600290004040404040404040202DA
:100090000202020203030303030301020408102007
:1000A0004080010204081020010204081020000012
:1000B0000008000201000003040700000000000027
:1000C0000000B60711241FBECFEFD8E0DEBFCDBFC2
:1000D00012E0A0E0B1E0E8E9F6E102C005900D927F
:1000E000A832B107D9F722E0A8E2B2E001C01D9220
:1000F000A93DB207E1F710E0C2E6D0E004C02197C5
:10010000FE010E944909C136D107C9F70E9429059D
:100110000C944A0B0C940000AF92BF92CF92DF92E6
:10012000EF92FF920F931F93CF93DF936C017B01AC
:100130008B01040F151FEB015E01AE18BF08C0173D
:10014000D10759F06991D601ED91FC910190F081B0
:10015000E02DC6010995892B79F7C501DF91CF9173
:100160001F910F91FF90EF90DF90CF90BF90AF90D5
:100170000895FC01538D448D252F30E0842F90E0AD
:10018000821B930B541710F0CF9608950197089592
:10019000FC01918D828D981761F0A28DAE0FBF2F5B
:1001A000B11D5D968C91928D9F5F9F73928F90E0B1
:1001B00008958FEF9FEF0895FC01918D828D981720
:1001C00031F0828DE80FF11D858D90E008958FEF5D
:1001D0009FEF0895FC01918D228D892F90E0805C26
:1001E0009F4F821B91098F739927089588E392E0AE
:1001F0000E94EA0021E0892B09F420E0822F089573
:1002000080E090E0892B29F00E94F60081110C9487
:1002100000000895FC01A48DA80FB92FB11DA35AA9
:10022000BF4F2C91848D90E001968F739927848F16
:10023000A689B7892C93A089B1898C918370806439
:100240008C93938D848D981306C00288F389E02DDA
:1002500080818F7D80830895EF92FF920F931F938B
:10026000CF93DF93EC0181E0888F9B8D8C8D981369
:100270001AC0E889F989808185FF15C09FB7F89475
:10028000EE89FF896083E889F989808183708064C1
:1002900080839FBF81E090E0DF91CF911F910F910C
:1002A000FF90EF900895F62E0B8D10E00F5F1F4F1B
:1002B0000F731127E02E8C8D8E110CC00FB607FC2A
:1002C000FACFE889F989808185FFF5CFCE010E94B8
:1002D0000A01F1CFEB8DEC0FFD2FF11DE35AFF4F1B
:1002E000F0829FB7F8940B8FEA89FB898081806246
:1002F000CFCFCF93DF93EC01888D8823B9F0AA8903
:10030000BB89E889F9898C9185FD03C0808186FDD0
:100310000DC00FB607FCF7CF8C9185FFF2CF80811F
:1003200085FFEDCFCE010E940A01E9CFDF91CF9189
:100330000895833081F028F4813099F08230A9F05B
:1003400008958730A9F08830C9F08430B1F48091E5
:1003500080008F7D03C0809180008F778093800024
:10036000089584B58F7784BD089584B58F7DFBCFC4
:100370008091B0008F778093B00008958091B00095
:100380008F7DF9CFCF93DF93282F30E0F901E2552D
:10039000FF4F8491F901E656FF4FD491F901EA57D6
:1003A000FF4FC491CC23A1F081110E949901EC2F41
:1003B000F0E0EE0FFF1FE458FF4FA591B491EC91D0
:1003C000ED2381E090E009F480E0DF91CF91089582
:1003D00080E090E0FACF1F93CF93DF93282F30E097
:1003E000F901E255FF4F8491F901E656FF4FD49190
:1003F000F901EA57FF4FC491CC23A9F0162F8111C0
:100400000E949901EC2FF0E0EE0FFF1FEE58FF4F16
:10041000A591B4918FB7F894EC91111108C0D095C3
:10042000DE23DC938FBFDF91CF911F910895DE2BE8
:10043000F8CF80913302811108C061E089E00E9409
:10044000EB0181E080933302089560E08AE00E942E
:10045000EB0161E089E00C94EB01CF93DF9390E036
:10046000FC01E656FF4F24918A579F4FFC0184916F
:100470008823D1F090E0880F991FFC01E859FF4FC5
:10048000A591B491FC01EE58FF4FC591D491623013
:1004900071F49FB7F8943C91822F809583238C93BD
:1004A000E8812E2B28839FBFDF91CF9108958FB7CE
:1004B000F894EC912E2B2C938FBFF6CF2FB7F89496
:1004C00060912D0270912E0280912F029091300246
:1004D0002FBF0895CF92DF92EF92FF926B017C01C4
:1004E0000E945E02C60ED71EE81EF91E0E945E0222
:1004F0006C157D058E059F05C8F3FF90EF90DF908A
:10050000CF900895FC0101900020E9F73197AF01E9
:10051000481B590BBC0188E392E00C948C008F922D
:100520009F92AF92BF920F931F93CF93DF93CDB75C
:10053000DEB7A1970FB6F894DEBF0FBECDBF19A2EC
:10054000423008F44AE08E010F5D1F4F842E912C3B
:10055000B12CA12CA50194010E94F008E62FB9014D
:10056000CA01EA30F4F4E05DD801EE938D01232B4B
:10057000242B252B79F790E080E0109719F0CD011E
:100580000E948202A1960FB6F894DEBF0FBECDBFC7
:10059000DF91CF911F910F91BF90AF909F908F905F
:1005A0000895E95CE1CFCF92DF92EF92FF92CF9373
:1005B000DF9397FF1BC06B017C016DE288E392E043
:1005C0000E942C01EC0166277727CB016C197D096D
:1005D0008E099F094AE00E948F028C0F9D1FDF91B8
:1005E000CF91FF90EF90DF90CF9008954AE0DF9198
:1005F000CF91FF90EF90DF90CF900C948F02CF932C
:10060000DF93BC01990F880B990B0E94D302EC0178
:100610008DE791E00E9482028C0F9D1FDF91CF91A8
:100620000895FC0180819181009711F00C94EB09F1
:100630000895EF92FF920F931F93CF93DF93EC01F6
:100640007B01198218821B821A821D821C82FB0187
:1006500001900020E9F731978F01061B170BB801B5
:100660006F5F7F4F90E080E00E94740A0097B9F0BE
:10067000998388831B830A832C813D81232B11F46A
:10068000FC0110821D830C83B70188819981DF9161
:10069000CF911F910F91FF90EF900C94430B8881A5
:1006A0009981009711F00E94EB09198218821D822E
:1006B0001C821B821A82DF91CF911F910F91FF90B4
:1006C000EF9008950F931F93CF93DF938C01EB016D
:1006D00060910001709101018091020190910301EC
:1006E0004AE00E948F0280E891E00E948202F801B5
:1006F000448155816081718188E392E00E948C0081
:1007000080E891E00E948202F80184819581892B22
:1007100089F062E871E0808191810E943A0B892B17
:1007200049F4CF3FDC0731F0BE01DD0F880B990B98
:100730000E94D3028DE791E0DF91CF911F910F913D
:100740000C9482021F93CF93DF93EC0111E0809110
:10075000370281111EC04C815D816881798188E3F7
:1007600092E00E948C008DE791E00E94820210933B
:10077000370280913302882361F060E089E00E94B3
:10078000EB0164E57BE080E090E00E946A02109259
:1007900033028C819D81892B79F069E871E0888131
:1007A00099810E943A0B892B39F468EE73E080E05E
:1007B00090E00E946A02CBCF10923702F0E0E0E0B6
:1007C000DF91CF911F910994CF92DF92EF92FF9228
:1007D0000F931F93CF93DF9300D000D000D0CDB7FD
:1007E000DEB78C010E945E026B017C0180913302B6
:1007F000882361F060E089E00E94EB0164E57BE022
:1008000080E090E00E946A021092330280913502EB
:10081000811117C086E00E94C201892B29F461E092
:100820008CE00E94EB01F6CF64E670E080E090E09F
:100830000E946A0260E08CE00E94EB0181E08093FC
:10084000350268E077E080E090E00E946A028091E3
:100850003502882381F061E08CE00E94EB0164EFB7
:1008600071E080E090E00E946A0260E08CE00E940B
:10087000EB01109235020E94190260E177E280E0FC
:1008800090E00E946A0284E2C80E85E4D81EE11C52
:10089000F11C0E945E026C157D058E059F0540F5DA
:1008A00085E00E94C201892B29F010923202109239
:1008B0003102EFCF809131029091320201969093F4
:1008C000320280933102049724F4C8010E94E403A9
:1008D000E0CF6FE971E0CE0101960E941903CE01CD
:1008E00001960E94A203CE0101960E941103D1CF6E
:1008F00026960FB6F894DEBF0FBECDBFDF91CF9125
:100900001F910F91FF90EF90DF90CF9008951F926D
:100910000F920FB60F9211242F933F934F935F9333
:100920006F937F938F939F93AF93BF93EF93FF93B7
:1009300088E392E00E940A01FF91EF91BF91AF918D
:100940009F918F917F916F915F914F913F912F91E7
:100950000F900FBE0F901F9018951F920F920FB619
:100960000F9211242F938F939F93EF93FF93E09116
:100970004802F09149028081E0914E02F0914F02CD
:1009800082FD1BC09081809151028F5F8F732091F7
:100990005202821741F0E0915102F0E0E85CFD4F15
:1009A000958F80935102FF91EF919F918F912F919D
:1009B0000F900FBE0F901F9018958081F4CF1F925B
:1009C0000F920FB60F9211242F933F938F939F9303
:1009D000AF93BF9380912D0290912E02A0912F0290
:1009E000B091300230912C0223E0230F2D3758F5BF
:1009F0000196A11DB11D20932C0280932D0290938E
:100A00002E02A0932F02B093300280912802909181
:100A10002902A0912A02B0912B020196A11DB11DBD
:100A20008093280290932902A0932A02B0932B026C
:100A3000BF91AF919F918F913F912F910F900FBEDA
:100A40000F901F90189526E8230F0296A11DB11D47
:100A5000D2CFCF93DF93CDB7DEB769970FB6F894B7
:100A6000DEBF0FBECDBF789484B5826084BD84B5EF
:100A7000816084BD85B5826085BD85B5816085BD99
:100A800080916E00816080936E0010928100809151
:100A900081008260809381008091810081608093D9
:100AA0008100809180008160809380008091B100FE
:100AB00084608093B1008091B00081608093B00029
:100AC00080917A00846080937A0080917A008260BD
:100AD00080937A0080917A00816080937A0080917F
:100AE0007A00806880937A001092C10060ED77E010
:100AF00080E090E00E946A0262E082E00E942D02A3
:100B000062E083E00E942D0262E084E00E942D02F8
:100B100062E085E00E942D0262E086E00E942D02E4
:100B200061E089E00E942D0261E08AE00E942D02CE
:100B300061E08CE00E942D0261E08BE00E942D02BA
:100B4000E0914802F091490282E08083E091440202
:100B5000F09145021082E0914602F09147028FEC3D
:100B6000808310925002E0914C02F0914D0286E099
:100B70008083E0914A02F0914B0280818061808302
:100B8000E0914A02F0914B02808188608083E0917D
:100B90004A02F0914B02808180688083E0914A0292
:100BA000F0914B0280818F7D808386E00E94C2019C
:100BB000892B29F461E08CE00E94EB01F6CF60E024
:100BC0008CE00E94EB0160ED77E080E090E00E9415
:100BD0006A0261E08CE00E94EB0168E572E080E06F
:100BE00090E00E946A0260E08CE00E94EB0190E1DC
:100BF000892E912CA12CB12C2FE1C22ED12CE12CCD
:100C0000F12C34E2232E312C8091000190910101CE
:100C1000A0910201B091030181319742A105B10574
:100C200019F4F0E0E0E0099583E1EEE0F1E0DE01A7
:100C3000119601900D928A95E1F76EEA71E0CE016E
:100C400044960E9419036FEF7FEFCE0144960E94F5
:100C50006203CE0144960E9411030E9419020E9471
:100C60002F08A50194010E948708665F7F4F8F4F70
:100C70009F4FF4E6F69F2001F79F500C11240E942D
:100C80005E02052C000C66087708460E571E681E8B
:100C9000791E0E945E026415750586059705C8F3E6
:100CA0006EEB71E0CE0144960E9419036FEF7FEF67
:100CB000CE0144960E946203CE0144960E94110325
:100CC000CE0101960E94E40361ED71E0CE014496ED
:100CD0000E9419036FEF7FEFCE0144960E946203DA
:100CE000CE0144960E9411030E942F08A70196018D
:100CF0000E9487082AE0269F8001279F100D11245B
:100D000008511C4F82EE91E00E948202C8010E94AD
:100D1000FF020E945E022801110F66087708460E46
:100D2000571E681E791E0E945E02641575058605B1
:100D3000970528F461E08BE00E94EB01F4CF60E0BE
:100D40008BE00E94EB010E942F08A70196010E94F0
:100D500087086E5C7F4F8F4F9F4F24E6269F2001B0
:100D6000279F500C1124052C000C6608770882EF91
:100D700091E00E948202C301B2010E94D3028DE77A
:100D800091E00E94820280913302882361F061E049
:100D90008AE00E94EB01C301B2010E946A0260E096
:100DA0008AE00E94EB010E945E022B013C0140E6BA
:100DB000440E4AEE541E611C711C0FEF1FEF8E850E
:100DC0009F8502970CF091C01F821E821D821C829B
:100DD0001B8283E00E94C2010197D9F383E00E9445
:100DE000C201892BE1F50E945E024616570668068D
:100DF000790670F465E072E0CE0144960E94190312
:100E0000CE0144960E94A203CE0144960E94110393
:100E10008D819E81059714F01A8219828F8181112C
:100E200007C089819A8101969A83898381E08F83A3
:100E300082E00E94C201892B61F48B819C81019622
:100E40009C838B836AE070E080E090E00E946A02FD
:100E5000EFCF8D819E8101969E838D83BFCF898147
:100E60009A818532910544F064E270E00E94210984
:100E7000892B11F43A8229828B819C8141970CF451
:100E8000A3CF87E192E00E94820289819A810E9429
:100E9000FF0280E292E00E9482028B819C810E948C
:100EA000FF02E981FA81EE0FFF1FED5CFE4F8081AA
:100EB0009181998B888B2A893B892F3F320751F486
:100EC0009B8B8A8B019661F08E859F8501969F870B
:100ED0008E8775CF8F3F980719F082179307A1F37C
:100EE0001F861E861B8B0A8B6ACF85E00E94C2017B
:100EF000892B71F169E871E0CE0144960E941903D3
:100F0000CE0144960E94A203CE0144960E94110392
:100F10008091000190910101A0910201B091030123
:100F20000196A11DB11D8093000190930101A09332
:100F30000201B093030180E090E0892B09F464CEB4
:100F40000E94F600882309F45FCE0E9400005CCE68
:100F50000889198962E871E0CE0144960E9419035C
:100F6000B801CE0144960E946203CECFE8E3F2E0DE
:100F70001382128288EE93E0A0E0B0E08483958330
:100F8000A683B78385E291E09183808385EC90E02E
:100F90009587848784EC90E09787868780EC90E043
:100FA000918B808B81EC90E0938B828B82EC90E034
:100FB000958B848B86EC90E0978B868B118E128EAE
:100FC000138E148E08958F929F92AF92BF92CF92FC
:100FD000DF92EF92FF92CF93DF93EC0168817981EA
:100FE0008A819B81611571058105910521F464E277
:100FF00079ED8BE597E02DE133EF41E050E00E9481
:10100000870849015A019B01AC01A7EAB1E40E949B
:10101000A6086B017C01ACEEB4EFA50194010E941F
:10102000B408C60ED71EE81EF91EF7FE06C081E002
:10103000C81AD108E10880E8F80AC882D982EA8291
:10104000FB82C701B6019F77DF91CF91FF90EF90B0
:10105000DF90CF90BF90AF909F908F9008958F9228
:101060009F92AF92BF92CF92DF92EF92FF926091E8
:1010700004017091050180910601909107016115AD
:1010800071058105910521F464E279ED8BE597E026
:101090002DE133EF41E050E00E94870849015A01F9
:1010A0009B01AC01A7EAB1E40E94A6086B017C0198
:1010B000ACEEB4EFA50194010E94B408C60ED71E91
:1010C000E81EF91EF7FE06C081E0C81AD108E10843
:1010D00080E8F80AC0920401D0920501E09206016E
:1010E000F0920701C701B6019F77FF90EF90DF9064
:1010F000CF90BF90AF909F908F9008956093040120
:101100007093050180930601909307010895052EC1
:1011100097FB1EF400940E949E0857FD07D00E9482
:10112000F00807FC03D04EF40C949E0850954095AF
:10113000309521953F4F4F4F5F4F08959095809583
:10114000709561957F4F8F4F9F4F08950E941209B0
:10115000A59F900DB49F900DA49F800D911D11240B
:101160000895B7FF0C94A6080E94A608821B930B53
:1011700008952F923F924F925F926F927F928F923B
:101180009F92AF92BF92CF92DF92EF92FF920F9316
:101190001F93CF93DF93CDB7DEB7CA1BDB0B0FB620
:1011A000F894DEBF0FBECDBF09942A8839884888DD
:1011B0005F846E847D848C849B84AA84B984C88473
:1011C000DF80EE80FD800C811B81AA81B981CE0F6A
:1011D000D11D0FB6F894DEBF0FBECDBFED0108954F
:1011E000A1E21A2EAA1BBB1BFD010DC0AA1FBB1F2B
:1011F000EE1FFF1FA217B307E407F50720F0A21B9D
:10120000B30BE40BF50B661F771F881F991F1A9409
:1012100069F760957095809590959B01AC01BD0133
:10122000CF010895A29FB001B39FC001A39F700D8D
:10123000811D1124911DB29F700D811D1124911DDE
:10124000089597FB072E16F4009407D077FD09D078
:101250000E94350907FC05D03EF4909581959F4F7B
:101260000895709561957F4F0895AA1BBB1B51E1AE
:1012700007C0AA1FBB1FA617B70710F0A61BB70B06
:10128000881F991F5A95A9F780959095BC01CD01AB
:101290000895EE0FFF1F0590F491E02D09940F9330
:1012A0001F93CF93DF938230910510F482E090E09A
:1012B000E091D702F091D80230E020E0B0E0A0E069
:1012C000309799F42115310509F44AC0281B390BD0
:1012D00024303105D8F58A819B816115710589F12A
:1012E000FB0193838283FE0111C040815181028101
:1012F000138148175907E0F04817590799F41097D8
:1013000061F012960C93129713961C933296CF01AC
:10131000DF91CF911F910F9108950093D702109301
:10132000D802F4CF2115310551F04217530738F098
:10133000A901DB019A01BD01DF01F801C1CFEF0175
:10134000F9CF9093D8028093D702CDCFFE01E20F60
:10135000F31F819391932250310939832883D7CF8A
:101360002091D5023091D602232B41F420910A011D
:1013700030910B013093D6022093D50220910801C1
:10138000309109012115310541F42DB73EB7409147
:101390000C0150910D01241B350BE091D502F09109
:1013A000D602E217F307A0F42E1B3F0B28173907CC
:1013B00078F0AC014E5F5F4F2417350748F04E0FB1
:1013C0005F1F5093D6024093D502819391939FCF94
:1013D000F0E0E0E09CCFCF93DF930097E9F0FC01D1
:1013E000329713821282A091D702B091D802ED01F8
:1013F00030E020E01097A1F420813181820F931F0B
:101400002091D5023091D6022817390709F061C022
:10141000F093D602E093D502DF91CF910895EA01CF
:10142000CE17DF07E8F54A815B819E014115510522
:10143000B1F7E901FB83EA8349915991C40FD51FA4
:10144000EC17FD0761F4808191810296840F951F4E
:10145000E90199838883828193819B838A83F0E069
:10146000E0E012968D919C9113970097B9F52D911C
:101470003C911197CD010296820F931F2091D502C6
:101480003091D6022817390739F6309751F5109266
:10149000D8021092D702B093D602A093D502BCCF47
:1014A000D383C28340815181840F951FC817D90708
:1014B00061F44E5F5F4F88819981480F591F5183B6
:1014C00040838A819B81938382832115310509F0B2
:1014D000B0CFF093D802E093D7029ECFFD01DC019C
:1014E000C0CF13821282D7CFB0E0A0E0EAE7FAE0E3
:1014F0000C94BB088C01009751F4CB010E944F095A
:101500008C01C801CDB7DEB7E0E10C94D708FC012F
:10151000E60FF71F9C0122503109E217F30708F488
:101520009DC0D901CD91DC911197C617D70798F0CE
:10153000C530D10530F3CE0104978617970708F31D
:10154000C61BD70B2297C193D1936D937C93CF0188
:101550000E94EB09D6CF5B01AC1ABD0A4C018C0E80
:101560009D1EA091D702B091D802512C412CF12C94
:10157000E12C109731F58091D5029091D602881513
:10158000990509F05CC04616570608F058C08091CE
:10159000080190910901009741F48DB79EB74091E1
:1015A0000C0150910D01841B950BE817F90708F009
:1015B00055C0F093D602E093D502F90171836083A0
:1015C000A0CF8D919C91119712966C9012971396C3
:1015D0007C901397A815B90559F56C0142E0C40E2B
:1015E000D11CCA14DB0420F1AC014A195B09DA01F1
:1015F0001296159780F06282738251834083D901DD
:101600006D937C93E114F10471F0D7011396FC9370
:10161000EE93129776CF22968C0F9D1FF90191833E
:101620008083F301EFCFF093D802E093D70269CF24
:101630004816590608F42C017D01D3019ACFCB013D
:101640000E944F097C01009749F0AE01B8010E9449
:10165000310BC8010E94EB09870153CF10E000E075
:1016600050CFFB01DC0102C001900D92415050406F
:10167000D8F70895FB01DC018D91019080190110CC
:10168000D9F3990B0895FB01DC0101900D92002024
:08169000E1F70895F894FFCF83
:1016980001000000010000000000D90280000000E5
:1016A800000000000000000000FFFF0000FFFFFF37
:1016B800FF000000002C018C00B9007901EA00C885
:1016C80000DC00170008001E000B0024000D001BA2
:1016D8000006002200110019000200150004001382
:1016E800000F00200000001A00030023000C001C5B
:1016F8000007001D001200160009001F000E00144C
:1017080000010021001000180005000A000D0A0061
:101718003B00524553554C5400504F535349424C8B
:10172800452053454E534F52204641554C54004294
:10173800414C4C5F4E4F545F464F554E44004E450A
:10174800575F524F554E445F5354415254004245DF
:101758005454494E475F54494D455F535441525480
:101768000042455454494E475F54494D455F454EE4
:101778004400466972652072616E6454696D653A09
:10178800200053687566666C652072616E645469E2
:101798006D653A200043414E27545F524541445FEE
:1017A8004E554D42455200536563746F723A20009E
:0817B8004C696768743A2000D7
:00000001FF
